:040000000C942A0032
:100004000C9400000C9400000C9400000C9400006C
:100014000C9400000C9400000C9400000C9400005C
:100024000C9400000C9400000C9400000C9400004C
:100034000C9400000C9400000C9400000C9400003C
:100044000C9400000C9400000C9400000C9400002C
:10005400F894EE27ECBBF1E0FBBFEBBFE5BF8DE00E
:10006400A2E0BB27ED938A95E9F780E094E0A0E64F
:10007400ED930197E9F7EFE5EDBFE4E0EEBFC0E6ED
:10008400D1E00C944500EFEFEABBE4BBA998A89A31
:1000940017D061D0E4E1EBBB5ED0E5E1EBBB5BD014
:1000A400A8985DD0A998AA9A0BD055D0E4E1EBBBEF
:1000B40052D0E5E1EBBB4FD0AA9851D0E7CFFFCFA8
:1000C400E1E0EBBBA8EEB3E00E94B800E2E0EBBBDA
:1000D400A8EEB3E00E94B800E3E0EBBBA8EEB3E007
:1000E4000E94B800E4E0EBBBA8EEB3E00E94B800C5
:1000F400E5E0EBBBA8EEB3E00E94B800E6E0EBBBA2
:10010400A8EEB3E00E94B800E7E0EBBBA8EEB3E0D2
:100114000E94B800E8E0EBBBA8EEB3E00E94B80090
:10012400E9E0EBBBA8EEB3E00E94B800E0E1EBBB72
:10013400A8EEB3E00E94B800E1E1EBBBA8EEB3E0A7
:100144000E94B800E2E1EBBBA8EEB3E00E94B80065
:10015400E3E1EBBB0895A8EEB3E00C94B800A99AD0
:10016400E8E8EBBBA8E8B3E10C94B800109639F0CA
:10017400A8958AEF90E00197F1F71197C9F70895D0
:00000001FF
